{
  "contractName": "MyLovelySubs",
  "abi": [
    {
      "inputs": [],
      "stateMutability": "nonpayable",
      "type": "constructor"
    },
    {
      "anonymous": false,
      "inputs": [
        {
          "indexed": true,
          "internalType": "address",
          "name": "owner",
          "type": "address"
        },
        {
          "indexed": true,
          "internalType": "address",
          "name": "approved",
          "type": "address"
        },
        {
          "indexed": true,
          "internalType": "uint256",
          "name": "tokenId",
          "type": "uint256"
        }
      ],
      "name": "Approval",
      "type": "event"
    },
    {
      "anonymous": false,
      "inputs": [
        {
          "indexed": true,
          "internalType": "address",
          "name": "owner",
          "type": "address"
        },
        {
          "indexed": true,
          "internalType": "address",
          "name": "operator",
          "type": "address"
        },
        {
          "indexed": false,
          "internalType": "bool",
          "name": "approved",
          "type": "bool"
        }
      ],
      "name": "ApprovalForAll",
      "type": "event"
    },
    {
      "anonymous": false,
      "inputs": [
        {
          "indexed": true,
          "internalType": "address",
          "name": "from",
          "type": "address"
        },
        {
          "indexed": true,
          "internalType": "address",
          "name": "to",
          "type": "address"
        },
        {
          "indexed": true,
          "internalType": "uint256",
          "name": "tokenId",
          "type": "uint256"
        }
      ],
      "name": "Transfer",
      "type": "event"
    },
    {
      "inputs": [],
      "name": "_1minted",
      "outputs": [
        {
          "internalType": "uint256",
          "name": "",
          "type": "uint256"
        }
      ],
      "stateMutability": "view",
      "type": "function",
      "constant": true
    },
    {
      "inputs": [
        {
          "internalType": "uint256",
          "name": "",
          "type": "uint256"
        }
      ],
      "name": "_1owners",
      "outputs": [
        {
          "internalType": "uint256",
          "name": "tokenId",
          "type": "uint256"
        },
        {
          "internalType": "string",
          "name": "name",
          "type": "string"
        }
      ],
      "stateMutability": "view",
      "type": "function",
      "constant": true
    },
    {
      "inputs": [],
      "name": "_1totalSupply",
      "outputs": [
        {
          "internalType": "uint256",
          "name": "",
          "type": "uint256"
        }
      ],
      "stateMutability": "view",
      "type": "function",
      "constant": true
    },
    {
      "inputs": [],
      "name": "_2minted",
      "outputs": [
        {
          "internalType": "uint256",
          "name": "",
          "type": "uint256"
        }
      ],
      "stateMutability": "view",
      "type": "function",
      "constant": true
    },
    {
      "inputs": [
        {
          "internalType": "uint256",
          "name": "",
          "type": "uint256"
        }
      ],
      "name": "_2owners",
      "outputs": [
        {
          "internalType": "uint256",
          "name": "tokenId",
          "type": "uint256"
        },
        {
          "internalType": "string",
          "name": "name",
          "type": "string"
        }
      ],
      "stateMutability": "view",
      "type": "function",
      "constant": true
    },
    {
      "inputs": [],
      "name": "_2totalSupply",
      "outputs": [
        {
          "internalType": "uint256",
          "name": "",
          "type": "uint256"
        }
      ],
      "stateMutability": "view",
      "type": "function",
      "constant": true
    },
    {
      "inputs": [],
      "name": "admin",
      "outputs": [
        {
          "internalType": "address",
          "name": "",
          "type": "address"
        }
      ],
      "stateMutability": "view",
      "type": "function",
      "constant": true
    },
    {
      "inputs": [
        {
          "internalType": "address",
          "name": "to",
          "type": "address"
        },
        {
          "internalType": "uint256",
          "name": "tokenId",
          "type": "uint256"
        }
      ],
      "name": "approve",
      "outputs": [],
      "stateMutability": "nonpayable",
      "type": "function"
    },
    {
      "inputs": [
        {
          "internalType": "address",
          "name": "owner",
          "type": "address"
        }
      ],
      "name": "balanceOf",
      "outputs": [
        {
          "internalType": "uint256",
          "name": "",
          "type": "uint256"
        }
      ],
      "stateMutability": "view",
      "type": "function",
      "constant": true
    },
    {
      "inputs": [],
      "name": "baseURI",
      "outputs": [
        {
          "internalType": "string",
          "name": "",
          "type": "string"
        }
      ],
      "stateMutability": "view",
      "type": "function",
      "constant": true
    },
    {
      "inputs": [
        {
          "internalType": "uint256",
          "name": "tokenId",
          "type": "uint256"
        }
      ],
      "name": "getApproved",
      "outputs": [
        {
          "internalType": "address",
          "name": "",
          "type": "address"
        }
      ],
      "stateMutability": "view",
      "type": "function",
      "constant": true
    },
    {
      "inputs": [
        {
          "internalType": "address",
          "name": "owner",
          "type": "address"
        },
        {
          "internalType": "address",
          "name": "operator",
          "type": "address"
        }
      ],
      "name": "isApprovedForAll",
      "outputs": [
        {
          "internalType": "bool",
          "name": "",
          "type": "bool"
        }
      ],
      "stateMutability": "view",
      "type": "function",
      "constant": true
    },
    {
      "inputs": [],
      "name": "name",
      "outputs": [
        {
          "internalType": "string",
          "name": "",
          "type": "string"
        }
      ],
      "stateMutability": "view",
      "type": "function",
      "constant": true
    },
    {
      "inputs": [],
      "name": "nextTokenId",
      "outputs": [
        {
          "internalType": "uint256",
          "name": "",
          "type": "uint256"
        }
      ],
      "stateMutability": "view",
      "type": "function",
      "constant": true
    },
    {
      "inputs": [
        {
          "internalType": "uint256",
          "name": "tokenId",
          "type": "uint256"
        }
      ],
      "name": "ownerOf",
      "outputs": [
        {
          "internalType": "address",
          "name": "",
          "type": "address"
        }
      ],
      "stateMutability": "view",
      "type": "function",
      "constant": true
    },
    {
      "inputs": [
        {
          "internalType": "address",
          "name": "from",
          "type": "address"
        },
        {
          "internalType": "address",
          "name": "to",
          "type": "address"
        },
        {
          "internalType": "uint256",
          "name": "tokenId",
          "type": "uint256"
        }
      ],
      "name": "safeTransferFrom",
      "outputs": [],
      "stateMutability": "nonpayable",
      "type": "function"
    },
    {
      "inputs": [
        {
          "internalType": "address",
          "name": "from",
          "type": "address"
        },
        {
          "internalType": "address",
          "name": "to",
          "type": "address"
        },
        {
          "internalType": "uint256",
          "name": "tokenId",
          "type": "uint256"
        },
        {
          "internalType": "bytes",
          "name": "_data",
          "type": "bytes"
        }
      ],
      "name": "safeTransferFrom",
      "outputs": [],
      "stateMutability": "nonpayable",
      "type": "function"
    },
    {
      "inputs": [
        {
          "internalType": "address",
          "name": "operator",
          "type": "address"
        },
        {
          "internalType": "bool",
          "name": "approved",
          "type": "bool"
        }
      ],
      "name": "setApprovalForAll",
      "outputs": [],
      "stateMutability": "nonpayable",
      "type": "function"
    },
    {
      "inputs": [
        {
          "internalType": "bytes4",
          "name": "interfaceId",
          "type": "bytes4"
        }
      ],
      "name": "supportsInterface",
      "outputs": [
        {
          "internalType": "bool",
          "name": "",
          "type": "bool"
        }
      ],
      "stateMutability": "view",
      "type": "function",
      "constant": true
    },
    {
      "inputs": [],
      "name": "symbol",
      "outputs": [
        {
          "internalType": "string",
          "name": "",
          "type": "string"
        }
      ],
      "stateMutability": "view",
      "type": "function",
      "constant": true
    },
    {
      "inputs": [
        {
          "internalType": "uint256",
          "name": "index",
          "type": "uint256"
        }
      ],
      "name": "tokenByIndex",
      "outputs": [
        {
          "internalType": "uint256",
          "name": "",
          "type": "uint256"
        }
      ],
      "stateMutability": "view",
      "type": "function",
      "constant": true
    },
    {
      "inputs": [
        {
          "internalType": "address",
          "name": "owner",
          "type": "address"
        },
        {
          "internalType": "uint256",
          "name": "index",
          "type": "uint256"
        }
      ],
      "name": "tokenOfOwnerByIndex",
      "outputs": [
        {
          "internalType": "uint256",
          "name": "",
          "type": "uint256"
        }
      ],
      "stateMutability": "view",
      "type": "function",
      "constant": true
    },
    {
      "inputs": [
        {
          "internalType": "uint256",
          "name": "tokenId",
          "type": "uint256"
        }
      ],
      "name": "tokenURI",
      "outputs": [
        {
          "internalType": "string",
          "name": "",
          "type": "string"
        }
      ],
      "stateMutability": "view",
      "type": "function",
      "constant": true
    },
    {
      "inputs": [],
      "name": "totalSupply",
      "outputs": [
        {
          "internalType": "uint256",
          "name": "",
          "type": "uint256"
        }
      ],
      "stateMutability": "view",
      "type": "function",
      "constant": true
    },
    {
      "inputs": [
        {
          "internalType": "address",
          "name": "from",
          "type": "address"
        },
        {
          "internalType": "address",
          "name": "to",
          "type": "address"
        },
        {
          "internalType": "uint256",
          "name": "tokenId",
          "type": "uint256"
        }
      ],
      "name": "transferFrom",
      "outputs": [],
      "stateMutability": "nonpayable",
      "type": "function"
    },
    {
      "inputs": [
        {
          "internalType": "uint256",
          "name": "_token",
          "type": "uint256"
        },
        {
          "internalType": "string",
          "name": "_ownerName",
          "type": "string"
        },
        {
          "internalType": "string",
          "name": "_tokenUri",
          "type": "string"
        }
      ],
      "name": "mint",
      "outputs": [],
      "stateMutability": "nonpayable",
      "type": "function"
    },
    {
      "inputs": [],
      "name": "get1Owners",
      "outputs": [
        {
          "components": [
            {
              "internalType": "uint256",
              "name": "tokenId",
              "type": "uint256"
            },
            {
              "internalType": "string",
              "name": "name",
              "type": "string"
            }
          ],
          "internalType": "struct MyLovelySubs.Owner[]",
          "name": "",
          "type": "tuple[]"
        }
      ],
      "stateMutability": "view",
      "type": "function",
      "constant": true
    },
    {
      "inputs": [],
      "name": "get2Owners",
      "outputs": [
        {
          "components": [
            {
              "internalType": "uint256",
              "name": "tokenId",
              "type": "uint256"
            },
            {
              "internalType": "string",
              "name": "name",
              "type": "string"
            }
          ],
          "internalType": "struct MyLovelySubs.Owner[]",
          "name": "",
          "type": "tuple[]"
        }
      ],
      "stateMutability": "view",
      "type": "function",
      "constant": true
    },
    {
      "inputs": [
        {
          "internalType": "uint256",
          "name": "_token",
          "type": "uint256"
        },
        {
          "internalType": "uint256",
          "name": "_newSupply",
          "type": "uint256"
        }
      ],
      "name": "editSupply",
      "outputs": [],
      "stateMutability": "nonpayable",
      "type": "function"
    }
  ],
  "bytecode": "0x60806040526000600a556000600b556000600c556045600d556064600e553480156200002a57600080fd5b5060405180606001604052806021815260200162003d59602191396040518060400160405280600381526020017f4142530000000000000000000000000000000000000000000000000000000000815250620000936301ffc9a760e01b6200015660201b60201c565b8160069080519060200190620000ab9291906200022e565b508060079080519060200190620000c49291906200022e565b50620000dd6380ac58cd60e01b6200015660201b60201c565b620000f5635b5e139f60e01b6200015660201b60201c565b6200010d63780e9d6360e01b6200015660201b60201c565b505033600f60006101000a81548173ffffffffffffffffffffffffffffffffffffffff021916908373ffffffffffffffffffffffffffffffffffffffff16021790555062000352565b63ffffffff60e01b817bffffffffffffffffffffffffffffffffffffffffffffffffffffffff19161415620001c2576040517f08c379a0000000000000000000000000000000000000000000000000000000008152600401620001b9906200031f565b60405180910390fd5b6001600080837bffffffffffffffffffffffffffffffffffffffffffffffffffffffff19167bffffffffffffffffffffffffffffffffffffffffffffffffffffffff1916815260200190815260200160002060006101000a81548160ff02191690831515021790555050565b828054600181600116156101000203166002900490600052602060002090601f016020900481019282601f106200027157805160ff1916838001178555620002a2565b82800160010185558215620002a2579182015b82811115620002a157825182559160200191906001019062000284565b5b509050620002b19190620002b5565b5090565b620002da91905b80821115620002d6576000816000905550600101620002bc565b5090565b90565b6000620002ec601c8362000341565b91507f4552433136353a20696e76616c696420696e74657266616365206964000000006000830152602082019050919050565b600060208201905081810360008301526200033a81620002dd565b9050919050565b600082825260208201905092915050565b6139f780620003626000396000f3fe608060405234801561001057600080fd5b50600436106101cf5760003560e01c806370a0823111610104578063a22cb465116100a2578063c87b56dd11610071578063c87b56dd14610546578063d49caf2e14610576578063e985e9c514610594578063f851a440146105c4576101cf565b8063a22cb465146104d2578063a7e1d031146104ee578063b28b47141461050c578063b88d4fde1461052a576101cf565b80637901c546116100de5780637901c5461461045c5780637e36cfd01461047a57806395d89b41146104965780639d0c58d8146104b4576101cf565b806370a08231146103f057806374f0f1901461042057806375794a3c1461043e576101cf565b80632825df7b116101715780634f6ccce71161014b5780634f6ccce71461034157806360f2659f146103715780636352211e146103a25780636c0360eb146103d2576101cf565b80632825df7b146102d95780632f745c59146102f557806342842e0e14610325576101cf565b8063095ea7b3116101ad578063095ea7b31461025257806318160ddd1461026e5780631e1e4e4a1461028c57806323b872dd146102bd576101cf565b806301ffc9a7146101d457806306fdde0314610204578063081812fc14610222575b600080fd5b6101ee60048036038101906101e991906129a0565b6105e2565b6040516101fb919061344c565b60405180910390f35b61020c610649565b6040516102199190613467565b60405180910390f35b61023c600480360381019061023791906129f2565b6106eb565b60405161024991906133c3565b60405180910390f35b61026c60048036038101906102679190612964565b610770565b005b610276610888565b60405161028391906136c9565b60405180910390f35b6102a660048036038101906102a191906129f2565b610899565b6040516102b49291906136e4565b60405180910390f35b6102d760048036038101906102d2919061285e565b610962565b005b6102f360048036038101906102ee9190612a1b565b6109c2565b005b61030f600480360381019061030a9190612964565b610b78565b60405161031c91906136c9565b60405180910390f35b61033f600480360381019061033a919061285e565b610bd3565b005b61035b600480360381019061035691906129f2565b610bf3565b60405161036891906136c9565b60405180910390f35b61038b600480360381019061038691906129f2565b610c16565b6040516103999291906136e4565b60405180910390f35b6103bc60048036038101906103b791906129f2565b610cdf565b6040516103c991906133c3565b60405180910390f35b6103da610d16565b6040516103e79190613467565b60405180910390f35b61040a600480360381019061040591906127f9565b610db8565b60405161041791906136c9565b60405180910390f35b610428610e77565b60405161043591906136c9565b60405180910390f35b610446610e7d565b60405161045391906136c9565b60405180910390f35b610464610e83565b60405161047191906136c9565b60405180910390f35b610494600480360381019061048f9190612a9a565b610e89565b005b61049e610f12565b6040516104ab9190613467565b60405180910390f35b6104bc610fb4565b6040516104c991906136c9565b60405180910390f35b6104ec60048036038101906104e79190612928565b610fba565b005b6104f661113b565b604051610503919061342a565b60405180910390f35b610514611246565b604051610521919061342a565b60405180910390f35b610544600480360381019061053f91906128ad565b611351565b005b610560600480360381019061055b91906129f2565b6113b3565b60405161056d9190613467565b60405180910390f35b61057e611536565b60405161058b91906136c9565b60405180910390f35b6105ae60048036038101906105a99190612822565b61153c565b6040516105bb919061344c565b60405180910390f35b6105cc6115d0565b6040516105d991906133c3565b60405180910390f35b6000806000837bffffffffffffffffffffffffffffffffffffffffffffffffffffffff19167bffffffffffffffffffffffffffffffffffffffffffffffffffffffff1916815260200190815260200160002060009054906101000a900460ff169050919050565b606060068054600181600116156101000203166002900480601f0160208091040260200160405190810160405280929190818152602001828054600181600116156101000203166002900480156106e15780601f106106b6576101008083540402835291602001916106e1565b820191906000526020600020905b8154815290600101906020018083116106c457829003601f168201915b5050505050905090565b60006106f6826115f6565b610735576040517f08c379a000000000000000000000000000000000000000000000000000000000815260040161072c906135e9565b60405180910390fd5b6004600083815260200190815260200160002060009054906101000a900473ffffffffffffffffffffffffffffffffffffffff169050919050565b600061077b82610cdf565b90508073ffffffffffffffffffffffffffffffffffffffff168373ffffffffffffffffffffffffffffffffffffffff1614156107ec576040517f08c379a00000000000000000000000000000000000000000000000000000000081526004016107e390613669565b60405180910390fd5b8073ffffffffffffffffffffffffffffffffffffffff1661080b611613565b73ffffffffffffffffffffffffffffffffffffffff16148061083a575061083981610834611613565b61153c565b5b610879576040517f08c379a000000000000000000000000000000000000000000000000000000000815260040161087090613569565b60405180910390fd5b610883838361161b565b505050565b600061089460026116d4565b905090565b601181815481106108a657fe5b9060005260206000209060020201600091509050806000015490806001018054600181600116156101000203166002900480601f0160208091040260200160405190810160405280929190818152602001828054600181600116156101000203166002900480156109585780601f1061092d57610100808354040283529160200191610958565b820191906000526020600020905b81548152906001019060200180831161093b57829003601f168201915b5050505050905082565b61097361096d611613565b826116e9565b6109b2576040517f08c379a00000000000000000000000000000000000000000000000000000000081526004016109a990613689565b60405180910390fd5b6109bd8383836117c7565b505050565b6001831480156109d55750600d54600b54105b15610a87576109ed6109e5611613565b600a546119de565b6109f9600a54826119fc565b610a01612629565b6040518060400160405280600a5481526020018481525090506010819080600181540180825580915050600190039060005260206000209060020201600090919091909150600082015181600001556020820151816001019080519060200190610a6c929190612643565b505050600b6000815480929190600101919050555050610b61565b600283148015610a9a5750600e54600c54105b15610b4c57610ab2610aaa611613565b600a546119de565b610abe600a54826119fc565b610ac6612629565b6040518060400160405280600a5481526020018481525090506011819080600181540180825580915050600190039060005260206000209060020201600090919091909150600082015181600001556020820151816001019080519060200190610b31929190612643565b505050600c6000815480929190600101919050555050610b60565b600a60008154809291906001900391905055505b5b600a60008154809291906001019190505550505050565b6000610bcb82600160008673ffffffffffffffffffffffffffffffffffffffff1673ffffffffffffffffffffffffffffffffffffffff168152602001908152602001600020611a7090919063ffffffff16565b905092915050565b610bee83838360405180602001604052806000815250611351565b505050565b600080610c0a836002611a8a90919063ffffffff16565b50905080915050919050565b60108181548110610c2357fe5b9060005260206000209060020201600091509050806000015490806001018054600181600116156101000203166002900480601f016020809104026020016040519081016040528092919081815260200182805460018160011615610100020316600290048015610cd55780601f10610caa57610100808354040283529160200191610cd5565b820191906000526020600020905b815481529060010190602001808311610cb857829003601f168201915b5050505050905082565b6000610d0f82604051806060016040528060298152602001613999602991396002611ab99092919063ffffffff16565b9050919050565b606060098054600181600116156101000203166002900480601f016020809104026020016040519081016040528092919081815260200182805460018160011615610100020316600290048015610dae5780601f10610d8357610100808354040283529160200191610dae565b820191906000526020600020905b815481529060010190602001808311610d9157829003601f168201915b5050505050905090565b60008073ffffffffffffffffffffffffffffffffffffffff168273ffffffffffffffffffffffffffffffffffffffff161415610e29576040517f08c379a0000000000000000000000000000000000000000000000000000000008152600401610e2090613589565b60405180910390fd5b610e70600160008473ffffffffffffffffffffffffffffffffffffffff1673ffffffffffffffffffffffffffffffffffffffff168152602001908152602001600020611ad8565b9050919050565b600d5481565b600a5481565b600c5481565b600f60009054906101000a900473ffffffffffffffffffffffffffffffffffffffff1673ffffffffffffffffffffffffffffffffffffffff16610eca611613565b73ffffffffffffffffffffffffffffffffffffffff161415610f0e576001821415610efb5780600d81905550610f0d565b6002821415610f0c5780600e819055505b5b5b5050565b606060078054600181600116156101000203166002900480601f016020809104026020016040519081016040528092919081815260200182805460018160011615610100020316600290048015610faa5780601f10610f7f57610100808354040283529160200191610faa565b820191906000526020600020905b815481529060010190602001808311610f8d57829003601f168201915b5050505050905090565b600b5481565b610fc2611613565b73ffffffffffffffffffffffffffffffffffffffff168273ffffffffffffffffffffffffffffffffffffffff161415611030576040517f08c379a000000000000000000000000000000000000000000000000000000000815260040161102790613509565b60405180910390fd5b806005600061103d611613565b73ffffffffffffffffffffffffffffffffffffffff1673ffffffffffffffffffffffffffffffffffffffff16815260200190815260200160002060008473ffffffffffffffffffffffffffffffffffffffff1673ffffffffffffffffffffffffffffffffffffffff16815260200190815260200160002060006101000a81548160ff0219169083151502179055508173ffffffffffffffffffffffffffffffffffffffff166110ea611613565b73ffffffffffffffffffffffffffffffffffffffff167f17307eab39ab6107e8899845ad3d59bd9653f200f220920489ca2b5937696c318360405161112f919061344c565b60405180910390a35050565b60606011805480602002602001604051908101604052809291908181526020016000905b8282101561123d578382906000526020600020906002020160405180604001604052908160008201548152602001600182018054600181600116156101000203166002900480601f0160208091040260200160405190810160405280929190818152602001828054600181600116156101000203166002900480156112255780601f106111fa57610100808354040283529160200191611225565b820191906000526020600020905b81548152906001019060200180831161120857829003601f168201915b5050505050815250508152602001906001019061115f565b50505050905090565b60606010805480602002602001604051908101604052809291908181526020016000905b82821015611348578382906000526020600020906002020160405180604001604052908160008201548152602001600182018054600181600116156101000203166002900480601f0160208091040260200160405190810160405280929190818152602001828054600181600116156101000203166002900480156113305780601f1061130557610100808354040283529160200191611330565b820191906000526020600020905b81548152906001019060200180831161131357829003601f168201915b5050505050815250508152602001906001019061126a565b50505050905090565b61136261135c611613565b836116e9565b6113a1576040517f08c379a000000000000000000000000000000000000000000000000000000000815260040161139890613689565b60405180910390fd5b6113ad84848484611aed565b50505050565b60606113be826115f6565b6113fd576040517f08c379a00000000000000000000000000000000000000000000000000000000081526004016113f490613649565b60405180910390fd5b6060600860008481526020019081526020016000208054600181600116156101000203166002900480601f0160208091040260200160405190810160405280929190818152602001828054600181600116156101000203166002900480156114a65780601f1061147b576101008083540402835291602001916114a6565b820191906000526020600020905b81548152906001019060200180831161148957829003601f168201915b5050505050905060606114b7610d16565b90506000815114156114cd578192505050611531565b6000825111156115025780826040516020016114ea92919061339f565b60405160208183030381529060405292505050611531565b8061150c85611b49565b60405160200161151d92919061339f565b604051602081830303815290604052925050505b919050565b600e5481565b6000600560008473ffffffffffffffffffffffffffffffffffffffff1673ffffffffffffffffffffffffffffffffffffffff16815260200190815260200160002060008373ffffffffffffffffffffffffffffffffffffffff1673ffffffffffffffffffffffffffffffffffffffff16815260200190815260200160002060009054906101000a900460ff16905092915050565b600f60009054906101000a900473ffffffffffffffffffffffffffffffffffffffff1681565b600061160c826002611c9090919063ffffffff16565b9050919050565b600033905090565b816004600083815260200190815260200160002060006101000a81548173ffffffffffffffffffffffffffffffffffffffff021916908373ffffffffffffffffffffffffffffffffffffffff160217905550808273ffffffffffffffffffffffffffffffffffffffff1661168e83610cdf565b73ffffffffffffffffffffffffffffffffffffffff167f8c5be1e5ebec7d5bd14f71427d1e84f3dd0314c0f7b2291e5b200ac8c7c3b92560405160405180910390a45050565b60006116e282600001611caa565b9050919050565b60006116f4826115f6565b611733576040517f08c379a000000000000000000000000000000000000000000000000000000000815260040161172a90613549565b60405180910390fd5b600061173e83610cdf565b90508073ffffffffffffffffffffffffffffffffffffffff168473ffffffffffffffffffffffffffffffffffffffff1614806117ad57508373ffffffffffffffffffffffffffffffffffffffff16611795846106eb565b73ffffffffffffffffffffffffffffffffffffffff16145b806117be57506117bd818561153c565b5b91505092915050565b8273ffffffffffffffffffffffffffffffffffffffff166117e782610cdf565b73ffffffffffffffffffffffffffffffffffffffff161461183d576040517f08c379a000000000000000000000000000000000000000000000000000000000815260040161183490613629565b60405180910390fd5b600073ffffffffffffffffffffffffffffffffffffffff168273ffffffffffffffffffffffffffffffffffffffff1614156118ad576040517f08c379a00000000000000000000000000000000000000000000000000000000081526004016118a4906134e9565b60405180910390fd5b6118b8838383611cbb565b6118c360008261161b565b61191481600160008673ffffffffffffffffffffffffffffffffffffffff1673ffffffffffffffffffffffffffffffffffffffff168152602001908152602001600020611cc090919063ffffffff16565b5061196681600160008573ffffffffffffffffffffffffffffffffffffffff1673ffffffffffffffffffffffffffffffffffffffff168152602001908152602001600020611cda90919063ffffffff16565b5061197d81836002611cf49092919063ffffffff16565b50808273ffffffffffffffffffffffffffffffffffffffff168473ffffffffffffffffffffffffffffffffffffffff167fddf252ad1be2c89b69c2b068fc378daa952ba7f163c4a11628f55a4df523b3ef60405160405180910390a4505050565b6119f8828260405180602001604052806000815250611d29565b5050565b611a05826115f6565b611a44576040517f08c379a0000000000000000000000000000000000000000000000000000000008152600401611a3b90613609565b60405180910390fd5b80600860008481526020019081526020016000209080519060200190611a6b929190612643565b505050565b6000611a7f8360000183611d84565b60001c905092915050565b600080600080611a9d8660000186611df1565b915091508160001c8160001c8090509350935050509250929050565b6000611acc846000018460001b84611e74565b60001c90509392505050565b6000611ae682600001611f05565b9050919050565b611af88484846117c7565b611b0484848484611f16565b611b43576040517f08c379a0000000000000000000000000000000000000000000000000000000008152600401611b3a906134a9565b60405180910390fd5b50505050565b60606000821415611b91576040518060400160405280600181526020017f30000000000000000000000000000000000000000000000000000000000000008152509050611c8b565b600082905060005b60008214611bbb578080600101915050600a8281611bb357fe5b049150611b99565b60608167ffffffffffffffff81118015611bd457600080fd5b506040519080825280601f01601f191660200182016040528015611c075781602001600182028036833780820191505090505b50905060006001830390508593505b60008414611c8357600a8481611c2857fe5b0660300160f81b82828060019003935081518110611c4257fe5b60200101907effffffffffffffffffffffffffffffffffffffffffffffffffffffffffffff1916908160001a905350600a8481611c7b57fe5b049350611c16565b819450505050505b919050565b6000611ca2836000018360001b61207a565b905092915050565b600081600001805490509050919050565b505050565b6000611cd2836000018360001b61209d565b905092915050565b6000611cec836000018360001b612185565b905092915050565b6000611d20846000018460001b8473ffffffffffffffffffffffffffffffffffffffff1660001b6121f5565b90509392505050565b611d3383836122d1565b611d406000848484611f16565b611d7f576040517f08c379a0000000000000000000000000000000000000000000000000000000008152600401611d76906134a9565b60405180910390fd5b505050565b600081836000018054905011611dcf576040517f08c379a0000000000000000000000000000000000000000000000000000000008152600401611dc690613489565b60405180910390fd5b826000018281548110611dde57fe5b9060005260206000200154905092915050565b60008082846000018054905011611e3d576040517f08c379a0000000000000000000000000000000000000000000000000000000008152600401611e34906135a9565b60405180910390fd5b6000846000018481548110611e4e57fe5b906000526020600020906002020190508060000154816001015492509250509250929050565b60008084600101600085815260200190815260200160002054905060008114158390611ed6576040517f08c379a0000000000000000000000000000000000000000000000000000000008152600401611ecd9190613467565b60405180910390fd5b50846000016001820381548110611ee957fe5b9060005260206000209060020201600101549150509392505050565b600081600001805490509050919050565b6000611f378473ffffffffffffffffffffffffffffffffffffffff1661245f565b611f445760019050612072565b606061200b63150b7a0260e01b611f59611613565b888787604051602401611f6f94939291906133de565b604051602081830303815290604052907bffffffffffffffffffffffffffffffffffffffffffffffffffffffff19166020820180517bffffffffffffffffffffffffffffffffffffffffffffffffffffffff8381831617835250505050604051806060016040528060328152602001613967603291398773ffffffffffffffffffffffffffffffffffffffff166124729092919063ffffffff16565b905060008180602001905181019061202391906129c9565b905063150b7a0260e01b7bffffffffffffffffffffffffffffffffffffffffffffffffffffffff1916817bffffffffffffffffffffffffffffffffffffffffffffffffffffffff191614925050505b949350505050565b600080836001016000848152602001908152602001600020541415905092915050565b6000808360010160008481526020019081526020016000205490506000811461217957600060018203905060006001866000018054905003905060008660000182815481106120e857fe5b906000526020600020015490508087600001848154811061210557fe5b906000526020600020018190555060018301876001016000838152602001908152602001600020819055508660000180548061213d57fe5b6001900381819060005260206000200160009055905586600101600087815260200190815260200160002060009055600194505050505061217f565b60009150505b92915050565b6000612191838361248a565b6121ea5782600001829080600181540180825580915050600190039060005260206000200160009091909190915055826000018054905083600101600084815260200190815260200160002081905550600190506121ef565b600090505b92915050565b600080846001016000858152602001908152602001600020549050600081141561229c578460000160405180604001604052808681526020018581525090806001815401808255809150506001900390600052602060002090600202016000909190919091506000820151816000015560208201518160010155505084600001805490508560010160008681526020019081526020016000208190555060019150506122ca565b828560000160018303815481106122af57fe5b90600052602060002090600202016001018190555060009150505b9392505050565b600073ffffffffffffffffffffffffffffffffffffffff168273ffffffffffffffffffffffffffffffffffffffff161415612341576040517f08c379a0000000000000000000000000000000000000000000000000000000008152600401612338906135c9565b60405180910390fd5b61234a816115f6565b1561238a576040517f08c379a0000000000000000000000000000000000000000000000000000000008152600401612381906134c9565b60405180910390fd5b61239660008383611cbb565b6123e781600160008573ffffffffffffffffffffffffffffffffffffffff1673ffffffffffffffffffffffffffffffffffffffff168152602001908152602001600020611cda90919063ffffffff16565b506123fe81836002611cf49092919063ffffffff16565b50808273ffffffffffffffffffffffffffffffffffffffff16600073ffffffffffffffffffffffffffffffffffffffff167fddf252ad1be2c89b69c2b068fc378daa952ba7f163c4a11628f55a4df523b3ef60405160405180910390a45050565b600080823b905060008111915050919050565b606061248184846000856124ad565b90509392505050565b600080836001016000848152602001908152602001600020541415905092915050565b6060824710156124f2576040517f08c379a00000000000000000000000000000000000000000000000000000000081526004016124e990613529565b60405180910390fd5b6124fb8561245f565b61253a576040517f08c379a0000000000000000000000000000000000000000000000000000000008152600401612531906136a9565b60405180910390fd5b600060608673ffffffffffffffffffffffffffffffffffffffff1685876040516125649190613388565b60006040518083038185875af1925050503d80600081146125a1576040519150601f19603f3d011682016040523d82523d6000602084013e6125a6565b606091505b50915091506125b68282866125c2565b92505050949350505050565b606083156125d257829050612622565b6000835111156125e55782518084602001fd5b816040517f08c379a00000000000000000000000000000000000000000000000000000000081526004016126199190613467565b60405180910390fd5b9392505050565b604051806040016040528060008152602001606081525090565b828054600181600116156101000203166002900490600052602060002090601f016020900481019282601f1061268457805160ff19168380011785556126b2565b828001600101855582156126b2579182015b828111156126b1578251825591602001919060010190612696565b5b5090506126bf91906126c3565b5090565b6126e591905b808211156126e15760008160009055506001016126c9565b5090565b90565b6000813590506126f78161390a565b92915050565b60008135905061270c81613921565b92915050565b60008135905061272181613938565b92915050565b60008151905061273681613938565b92915050565b600082601f83011261274d57600080fd5b813561276061275b82613741565b613714565b9150808252602083016020830185838301111561277c57600080fd5b6127878382846138b7565b50505092915050565b600082601f8301126127a157600080fd5b81356127b46127af8261376d565b613714565b915080825260208301602083018583830111156127d057600080fd5b6127db8382846138b7565b50505092915050565b6000813590506127f38161394f565b92915050565b60006020828403121561280b57600080fd5b6000612819848285016126e8565b91505092915050565b6000806040838503121561283557600080fd5b6000612843858286016126e8565b9250506020612854858286016126e8565b9150509250929050565b60008060006060848603121561287357600080fd5b6000612881868287016126e8565b9350506020612892868287016126e8565b92505060406128a3868287016127e4565b9150509250925092565b600080600080608085870312156128c357600080fd5b60006128d1878288016126e8565b94505060206128e2878288016126e8565b93505060406128f3878288016127e4565b925050606085013567ffffffffffffffff81111561291057600080fd5b61291c8782880161273c565b91505092959194509250565b6000806040838503121561293b57600080fd5b6000612949858286016126e8565b925050602061295a858286016126fd565b9150509250929050565b6000806040838503121561297757600080fd5b6000612985858286016126e8565b9250506020612996858286016127e4565b9150509250929050565b6000602082840312156129b257600080fd5b60006129c084828501612712565b91505092915050565b6000602082840312156129db57600080fd5b60006129e984828501612727565b91505092915050565b600060208284031215612a0457600080fd5b6000612a12848285016127e4565b91505092915050565b600080600060608486031215612a3057600080fd5b6000612a3e868287016127e4565b935050602084013567ffffffffffffffff811115612a5b57600080fd5b612a6786828701612790565b925050604084013567ffffffffffffffff811115612a8457600080fd5b612a9086828701612790565b9150509250925092565b60008060408385031215612aad57600080fd5b6000612abb858286016127e4565b9250506020612acc858286016127e4565b9150509250929050565b6000612ae2838361332d565b905092915050565b612af381613843565b82525050565b612b0281613831565b82525050565b6000612b13826137a9565b612b1d81856137d7565b935083602082028501612b2f85613799565b8060005b85811015612b6b5784840389528151612b4c8582612ad6565b9450612b57836137ca565b925060208a01995050600181019050612b33565b50829750879550505050505092915050565b612b8681613855565b82525050565b6000612b97826137b4565b612ba181856137e8565b9350612bb18185602086016138c6565b612bba816138f9565b840191505092915050565b6000612bd0826137b4565b612bda81856137f9565b9350612bea8185602086016138c6565b80840191505092915050565b6000612c01826137bf565b612c0b8185613804565b9350612c1b8185602086016138c6565b612c24816138f9565b840191505092915050565b6000612c3a826137bf565b612c448185613815565b9350612c548185602086016138c6565b612c5d816138f9565b840191505092915050565b6000612c73826137bf565b612c7d8185613826565b9350612c8d8185602086016138c6565b80840191505092915050565b6000612ca6602283613815565b91507f456e756d657261626c655365743a20696e646578206f7574206f6620626f756e60008301527f64730000000000000000000000000000000000000000000000000000000000006020830152604082019050919050565b6000612d0c603283613815565b91507f4552433732313a207472616e7366657220746f206e6f6e20455243373231526560008301527f63656976657220696d706c656d656e74657200000000000000000000000000006020830152604082019050919050565b6000612d72601c83613815565b91507f4552433732313a20746f6b656e20616c7265616479206d696e746564000000006000830152602082019050919050565b6000612db2602483613815565b91507f4552433732313a207472616e7366657220746f20746865207a65726f2061646460008301527f72657373000000000000000000000000000000000000000000000000000000006020830152604082019050919050565b6000612e18601983613815565b91507f4552433732313a20617070726f766520746f2063616c6c6572000000000000006000830152602082019050919050565b6000612e58602683613815565b91507f416464726573733a20696e73756666696369656e742062616c616e636520666f60008301527f722063616c6c00000000000000000000000000000000000000000000000000006020830152604082019050919050565b6000612ebe602c83613815565b91507f4552433732313a206f70657261746f7220717565727920666f72206e6f6e657860008301527f697374656e7420746f6b656e00000000000000000000000000000000000000006020830152604082019050919050565b6000612f24603883613815565b91507f4552433732313a20617070726f76652063616c6c6572206973206e6f74206f7760008301527f6e6572206e6f7220617070726f76656420666f7220616c6c00000000000000006020830152604082019050919050565b6000612f8a602a83613815565b91507f4552433732313a2062616c616e636520717565727920666f7220746865207a6560008301527f726f2061646472657373000000000000000000000000000000000000000000006020830152604082019050919050565b6000612ff0602283613815565b91507f456e756d657261626c654d61703a20696e646578206f7574206f6620626f756e60008301527f64730000000000000000000000000000000000000000000000000000000000006020830152604082019050919050565b6000613056602083613815565b91507f4552433732313a206d696e7420746f20746865207a65726f20616464726573736000830152602082019050919050565b6000613096602c83613815565b91507f4552433732313a20617070726f76656420717565727920666f72206e6f6e657860008301527f697374656e7420746f6b656e00000000000000000000000000000000000000006020830152604082019050919050565b60006130fc602c83613815565b91507f4552433732314d657461646174613a2055524920736574206f66206e6f6e657860008301527f697374656e7420746f6b656e00000000000000000000000000000000000000006020830152604082019050919050565b6000613162602983613815565b91507f4552433732313a207472616e73666572206f6620746f6b656e2074686174206960008301527f73206e6f74206f776e00000000000000000000000000000000000000000000006020830152604082019050919050565b60006131c8602f83613815565b91507f4552433732314d657461646174613a2055524920717565727920666f72206e6f60008301527f6e6578697374656e7420746f6b656e00000000000000000000000000000000006020830152604082019050919050565b600061322e602183613815565b91507f4552433732313a20617070726f76616c20746f2063757272656e74206f776e6560008301527f72000000000000000000000000000000000000000000000000000000000000006020830152604082019050919050565b6000613294603183613815565b91507f4552433732313a207472616e736665722063616c6c6572206973206e6f74206f60008301527f776e6572206e6f7220617070726f7665640000000000000000000000000000006020830152604082019050919050565b60006132fa601d83613815565b91507f416464726573733a2063616c6c20746f206e6f6e2d636f6e74726163740000006000830152602082019050919050565b6000604083016000830151613345600086018261336a565b506020830151848203602086015261335d8282612bf6565b9150508091505092915050565b613373816138ad565b82525050565b613382816138ad565b82525050565b60006133948284612bc5565b915081905092915050565b60006133ab8285612c68565b91506133b78284612c68565b91508190509392505050565b60006020820190506133d86000830184612af9565b92915050565b60006080820190506133f36000830187612aea565b6134006020830186612af9565b61340d6040830185613379565b818103606083015261341f8184612b8c565b905095945050505050565b600060208201905081810360008301526134448184612b08565b905092915050565b60006020820190506134616000830184612b7d565b92915050565b600060208201905081810360008301526134818184612c2f565b905092915050565b600060208201905081810360008301526134a281612c99565b9050919050565b600060208201905081810360008301526134c281612cff565b9050919050565b600060208201905081810360008301526134e281612d65565b9050919050565b6000602082019050818103600083015261350281612da5565b9050919050565b6000602082019050818103600083015261352281612e0b565b9050919050565b6000602082019050818103600083015261354281612e4b565b9050919050565b6000602082019050818103600083015261356281612eb1565b9050919050565b6000602082019050818103600083015261358281612f17565b9050919050565b600060208201905081810360008301526135a281612f7d565b9050919050565b600060208201905081810360008301526135c281612fe3565b9050919050565b600060208201905081810360008301526135e281613049565b9050919050565b6000602082019050818103600083015261360281613089565b9050919050565b60006020820190508181036000830152613622816130ef565b9050919050565b6000602082019050818103600083015261364281613155565b9050919050565b60006020820190508181036000830152613662816131bb565b9050919050565b6000602082019050818103600083015261368281613221565b9050919050565b600060208201905081810360008301526136a281613287565b9050919050565b600060208201905081810360008301526136c2816132ed565b9050919050565b60006020820190506136de6000830184613379565b92915050565b60006040820190506136f96000830185613379565b818103602083015261370b8184612c2f565b90509392505050565b6000604051905081810181811067ffffffffffffffff8211171561373757600080fd5b8060405250919050565b600067ffffffffffffffff82111561375857600080fd5b601f19601f8301169050602081019050919050565b600067ffffffffffffffff82111561378457600080fd5b601f19601f8301169050602081019050919050565b6000819050602082019050919050565b600081519050919050565b600081519050919050565b600081519050919050565b6000602082019050919050565b600082825260208201905092915050565b600082825260208201905092915050565b600081905092915050565b600082825260208201905092915050565b600082825260208201905092915050565b600081905092915050565b600061383c8261388d565b9050919050565b600061384e8261388d565b9050919050565b60008115159050919050565b60007fffffffff0000000000000000000000000000000000000000000000000000000082169050919050565b600073ffffffffffffffffffffffffffffffffffffffff82169050919050565b6000819050919050565b82818337600083830152505050565b60005b838110156138e45780820151818401526020810190506138c9565b838111156138f3576000848401525b50505050565b6000601f19601f8301169050919050565b61391381613831565b811461391e57600080fd5b50565b61392a81613855565b811461393557600080fd5b50565b61394181613861565b811461394c57600080fd5b50565b613958816138ad565b811461396357600080fd5b5056fe4552433732313a207472616e7366657220746f206e6f6e20455243373231526563656976657220696d706c656d656e7465724552433732313a206f776e657220717565727920666f72206e6f6e6578697374656e7420746f6b656ea2646970667358221220fb963a89d3030c237a38dafe331cfea75d21364d8036dd80a85fca41d5b555aa64736f6c6343000606003357656c636f6d6520746f207468652047616e6720e29da4202d20416268696e6176",
  "immutableReferences": {},
  "source": "// SPDX-License-Identifier: MIT\npragma solidity ^0.6.6;\npragma experimental ABIEncoderV2;\n\nimport \"@openzeppelin/contracts/token/ERC721/ERC721.sol\";\ncontract MyLovelySubs is ERC721{\n\n    uint256 public nextTokenId=0;\n    uint256 public _1minted=0;\n    uint256 public _2minted=0;\n    uint256 public _1totalSupply=69;\n    uint256 public _2totalSupply=100;\n    address public admin;\n    struct Owner {\n        uint tokenId;\n        string name;\n    }\n    Owner[] public _1owners;\n    Owner[] public _2owners;\n    \n    constructor() public ERC721(\"Welcome to the Gang  - Abhinav\", \"ABS\") {\n        admin = msg.sender;\n    }\n    function mint(uint _token,string memory _ownerName,string memory _tokenUri)public {\n       if(_token==1 && _1minted<_1totalSupply){\n        _safeMint(_msgSender(),nextTokenId);\n        _setTokenURI(nextTokenId,_tokenUri);\n        Owner memory owner = Owner(nextTokenId,_ownerName);\n        _1owners.push(owner);\n        _1minted++;\n       }\n       else if(_token==2 && _2minted<_2totalSupply){\n        _safeMint(_msgSender(),nextTokenId);\n        _setTokenURI(nextTokenId,_tokenUri);\n        Owner memory owner = Owner(nextTokenId,_ownerName);\n        _2owners.push(owner);\n        _2minted++;\n       }else{\n           nextTokenId--;\n       }\n       nextTokenId++;\n    }\n    function get1Owners()public view returns (Owner[] memory){\n        return _1owners;\n    }\n    function get2Owners()public view returns (Owner[] memory){\n        return _2owners;\n    }\n    function editSupply(uint _token,uint _newSupply) public {\n        if(_msgSender()==admin){\n            if(_token==1){\n                _1totalSupply=_newSupply;\n            }else if(_token==2){\n                _2totalSupply=_newSupply;\n            }\n        }\n    }\n}\n\n",
  "sourcePath": "/Users/abhinavsingh/Dev/Genesis/Project Genesis contract/contracts/MyLovelySubs.sol",
  "compiler": {
    "name": "solc",
    "version": "0.6.6+commit.6c089d02.Emscripten.clang"
  },
  "schemaVersion": "3.4.1",
  "updatedAt": "2021-06-03T13:45:09.554Z",
  "networkType": "ethereum",
  "devdoc": {
    "methods": {
      "approve(address,uint256)": {
        "details": "See {IERC721-approve}."
      },
      "balanceOf(address)": {
        "details": "See {IERC721-balanceOf}."
      },
      "baseURI()": {
        "details": "Returns the base URI set via {_setBaseURI}. This will be automatically added as a prefix in {tokenURI} to each token's URI, or to the token ID if no specific URI is set for that token ID."
      },
      "getApproved(uint256)": {
        "details": "See {IERC721-getApproved}."
      },
      "isApprovedForAll(address,address)": {
        "details": "See {IERC721-isApprovedForAll}."
      },
      "name()": {
        "details": "See {IERC721Metadata-name}."
      },
      "ownerOf(uint256)": {
        "details": "See {IERC721-ownerOf}."
      },
      "safeTransferFrom(address,address,uint256)": {
        "details": "See {IERC721-safeTransferFrom}."
      },
      "safeTransferFrom(address,address,uint256,bytes)": {
        "details": "See {IERC721-safeTransferFrom}."
      },
      "setApprovalForAll(address,bool)": {
        "details": "See {IERC721-setApprovalForAll}."
      },
      "supportsInterface(bytes4)": {
        "details": "See {IERC165-supportsInterface}.     * Time complexity O(1), guaranteed to always use less than 30 000 gas."
      },
      "symbol()": {
        "details": "See {IERC721Metadata-symbol}."
      },
      "tokenByIndex(uint256)": {
        "details": "See {IERC721Enumerable-tokenByIndex}."
      },
      "tokenOfOwnerByIndex(address,uint256)": {
        "details": "See {IERC721Enumerable-tokenOfOwnerByIndex}."
      },
      "tokenURI(uint256)": {
        "details": "See {IERC721Metadata-tokenURI}."
      },
      "totalSupply()": {
        "details": "See {IERC721Enumerable-totalSupply}."
      },
      "transferFrom(address,address,uint256)": {
        "details": "See {IERC721-transferFrom}."
      }
    }
  },
  "userdoc": {
    "methods": {}
  }
}