{
  "contractName": "Storage",
  "abi": [
    {
      "inputs": [],
      "stateMutability": "nonpayable",
      "type": "constructor"
    },
    {
      "anonymous": false,
      "inputs": [
        {
          "indexed": true,
          "internalType": "address",
          "name": "owner",
          "type": "address"
        },
        {
          "indexed": true,
          "internalType": "address",
          "name": "approved",
          "type": "address"
        },
        {
          "indexed": true,
          "internalType": "uint256",
          "name": "tokenId",
          "type": "uint256"
        }
      ],
      "name": "Approval",
      "type": "event"
    },
    {
      "anonymous": false,
      "inputs": [
        {
          "indexed": true,
          "internalType": "address",
          "name": "owner",
          "type": "address"
        },
        {
          "indexed": true,
          "internalType": "address",
          "name": "operator",
          "type": "address"
        },
        {
          "indexed": false,
          "internalType": "bool",
          "name": "approved",
          "type": "bool"
        }
      ],
      "name": "ApprovalForAll",
      "type": "event"
    },
    {
      "anonymous": false,
      "inputs": [
        {
          "indexed": true,
          "internalType": "address",
          "name": "from",
          "type": "address"
        },
        {
          "indexed": true,
          "internalType": "address",
          "name": "to",
          "type": "address"
        },
        {
          "indexed": true,
          "internalType": "uint256",
          "name": "tokenId",
          "type": "uint256"
        }
      ],
      "name": "Transfer",
      "type": "event"
    },
    {
      "inputs": [],
      "name": "_1minted",
      "outputs": [
        {
          "internalType": "uint256",
          "name": "",
          "type": "uint256"
        }
      ],
      "stateMutability": "view",
      "type": "function"
    },
    {
      "inputs": [
        {
          "internalType": "uint256",
          "name": "",
          "type": "uint256"
        }
      ],
      "name": "_1owners",
      "outputs": [
        {
          "internalType": "uint256",
          "name": "tokenId",
          "type": "uint256"
        },
        {
          "internalType": "string",
          "name": "name",
          "type": "string"
        }
      ],
      "stateMutability": "view",
      "type": "function"
    },
    {
      "inputs": [],
      "name": "_1totalSupply",
      "outputs": [
        {
          "internalType": "uint256",
          "name": "",
          "type": "uint256"
        }
      ],
      "stateMutability": "view",
      "type": "function"
    },
    {
      "inputs": [],
      "name": "_2minted",
      "outputs": [
        {
          "internalType": "uint256",
          "name": "",
          "type": "uint256"
        }
      ],
      "stateMutability": "view",
      "type": "function"
    },
    {
      "inputs": [
        {
          "internalType": "uint256",
          "name": "",
          "type": "uint256"
        }
      ],
      "name": "_2owners",
      "outputs": [
        {
          "internalType": "uint256",
          "name": "tokenId",
          "type": "uint256"
        },
        {
          "internalType": "string",
          "name": "name",
          "type": "string"
        }
      ],
      "stateMutability": "view",
      "type": "function"
    },
    {
      "inputs": [],
      "name": "_2totalSupply",
      "outputs": [
        {
          "internalType": "uint256",
          "name": "",
          "type": "uint256"
        }
      ],
      "stateMutability": "view",
      "type": "function"
    },
    {
      "inputs": [],
      "name": "admin",
      "outputs": [
        {
          "internalType": "address",
          "name": "",
          "type": "address"
        }
      ],
      "stateMutability": "view",
      "type": "function"
    },
    {
      "inputs": [
        {
          "internalType": "address",
          "name": "to",
          "type": "address"
        },
        {
          "internalType": "uint256",
          "name": "tokenId",
          "type": "uint256"
        }
      ],
      "name": "approve",
      "outputs": [],
      "stateMutability": "nonpayable",
      "type": "function"
    },
    {
      "inputs": [
        {
          "internalType": "address",
          "name": "owner",
          "type": "address"
        }
      ],
      "name": "balanceOf",
      "outputs": [
        {
          "internalType": "uint256",
          "name": "",
          "type": "uint256"
        }
      ],
      "stateMutability": "view",
      "type": "function"
    },
    {
      "inputs": [],
      "name": "baseURI",
      "outputs": [
        {
          "internalType": "string",
          "name": "",
          "type": "string"
        }
      ],
      "stateMutability": "view",
      "type": "function"
    },
    {
      "inputs": [
        {
          "internalType": "uint256",
          "name": "tokenId",
          "type": "uint256"
        }
      ],
      "name": "getApproved",
      "outputs": [
        {
          "internalType": "address",
          "name": "",
          "type": "address"
        }
      ],
      "stateMutability": "view",
      "type": "function"
    },
    {
      "inputs": [
        {
          "internalType": "address",
          "name": "owner",
          "type": "address"
        },
        {
          "internalType": "address",
          "name": "operator",
          "type": "address"
        }
      ],
      "name": "isApprovedForAll",
      "outputs": [
        {
          "internalType": "bool",
          "name": "",
          "type": "bool"
        }
      ],
      "stateMutability": "view",
      "type": "function"
    },
    {
      "inputs": [],
      "name": "name",
      "outputs": [
        {
          "internalType": "string",
          "name": "",
          "type": "string"
        }
      ],
      "stateMutability": "view",
      "type": "function"
    },
    {
      "inputs": [],
      "name": "nextTokenId",
      "outputs": [
        {
          "internalType": "uint256",
          "name": "",
          "type": "uint256"
        }
      ],
      "stateMutability": "view",
      "type": "function"
    },
    {
      "inputs": [
        {
          "internalType": "uint256",
          "name": "tokenId",
          "type": "uint256"
        }
      ],
      "name": "ownerOf",
      "outputs": [
        {
          "internalType": "address",
          "name": "",
          "type": "address"
        }
      ],
      "stateMutability": "view",
      "type": "function"
    },
    {
      "inputs": [
        {
          "internalType": "address",
          "name": "from",
          "type": "address"
        },
        {
          "internalType": "address",
          "name": "to",
          "type": "address"
        },
        {
          "internalType": "uint256",
          "name": "tokenId",
          "type": "uint256"
        }
      ],
      "name": "safeTransferFrom",
      "outputs": [],
      "stateMutability": "nonpayable",
      "type": "function"
    },
    {
      "inputs": [
        {
          "internalType": "address",
          "name": "from",
          "type": "address"
        },
        {
          "internalType": "address",
          "name": "to",
          "type": "address"
        },
        {
          "internalType": "uint256",
          "name": "tokenId",
          "type": "uint256"
        },
        {
          "internalType": "bytes",
          "name": "_data",
          "type": "bytes"
        }
      ],
      "name": "safeTransferFrom",
      "outputs": [],
      "stateMutability": "nonpayable",
      "type": "function"
    },
    {
      "inputs": [
        {
          "internalType": "address",
          "name": "operator",
          "type": "address"
        },
        {
          "internalType": "bool",
          "name": "approved",
          "type": "bool"
        }
      ],
      "name": "setApprovalForAll",
      "outputs": [],
      "stateMutability": "nonpayable",
      "type": "function"
    },
    {
      "inputs": [
        {
          "internalType": "bytes4",
          "name": "interfaceId",
          "type": "bytes4"
        }
      ],
      "name": "supportsInterface",
      "outputs": [
        {
          "internalType": "bool",
          "name": "",
          "type": "bool"
        }
      ],
      "stateMutability": "view",
      "type": "function"
    },
    {
      "inputs": [],
      "name": "symbol",
      "outputs": [
        {
          "internalType": "string",
          "name": "",
          "type": "string"
        }
      ],
      "stateMutability": "view",
      "type": "function"
    },
    {
      "inputs": [
        {
          "internalType": "uint256",
          "name": "index",
          "type": "uint256"
        }
      ],
      "name": "tokenByIndex",
      "outputs": [
        {
          "internalType": "uint256",
          "name": "",
          "type": "uint256"
        }
      ],
      "stateMutability": "view",
      "type": "function"
    },
    {
      "inputs": [
        {
          "internalType": "address",
          "name": "owner",
          "type": "address"
        },
        {
          "internalType": "uint256",
          "name": "index",
          "type": "uint256"
        }
      ],
      "name": "tokenOfOwnerByIndex",
      "outputs": [
        {
          "internalType": "uint256",
          "name": "",
          "type": "uint256"
        }
      ],
      "stateMutability": "view",
      "type": "function"
    },
    {
      "inputs": [
        {
          "internalType": "uint256",
          "name": "tokenId",
          "type": "uint256"
        }
      ],
      "name": "tokenURI",
      "outputs": [
        {
          "internalType": "string",
          "name": "",
          "type": "string"
        }
      ],
      "stateMutability": "view",
      "type": "function"
    },
    {
      "inputs": [],
      "name": "totalSupply",
      "outputs": [
        {
          "internalType": "uint256",
          "name": "",
          "type": "uint256"
        }
      ],
      "stateMutability": "view",
      "type": "function"
    },
    {
      "inputs": [
        {
          "internalType": "address",
          "name": "from",
          "type": "address"
        },
        {
          "internalType": "address",
          "name": "to",
          "type": "address"
        },
        {
          "internalType": "uint256",
          "name": "tokenId",
          "type": "uint256"
        }
      ],
      "name": "transferFrom",
      "outputs": [],
      "stateMutability": "nonpayable",
      "type": "function"
    },
    {
      "inputs": [
        {
          "internalType": "uint256",
          "name": "_token",
          "type": "uint256"
        },
        {
          "internalType": "string",
          "name": "_ownerName",
          "type": "string"
        },
        {
          "internalType": "string",
          "name": "_tokenUri",
          "type": "string"
        }
      ],
      "name": "mint",
      "outputs": [],
      "stateMutability": "nonpayable",
      "type": "function"
    },
    {
      "inputs": [],
      "name": "get1Owners",
      "outputs": [
        {
          "components": [
            {
              "internalType": "uint256",
              "name": "tokenId",
              "type": "uint256"
            },
            {
              "internalType": "string",
              "name": "name",
              "type": "string"
            }
          ],
          "internalType": "struct Storage.Owner[]",
          "name": "",
          "type": "tuple[]"
        }
      ],
      "stateMutability": "view",
      "type": "function"
    },
    {
      "inputs": [],
      "name": "get2Owners",
      "outputs": [
        {
          "components": [
            {
              "internalType": "uint256",
              "name": "tokenId",
              "type": "uint256"
            },
            {
              "internalType": "string",
              "name": "name",
              "type": "string"
            }
          ],
          "internalType": "struct Storage.Owner[]",
          "name": "",
          "type": "tuple[]"
        }
      ],
      "stateMutability": "view",
      "type": "function"
    }
  ],
  "bytecode": "0x60806040526000600a556000600b556000600c556045600d55620186a0600e553480156200002c57600080fd5b5060405180606001604052806027815260200162003c6f602791396040518060400160405280600381526020017f4142530000000000000000000000000000000000000000000000000000000000815250620000956301ffc9a760e01b6200015860201b60201c565b8160069080519060200190620000ad92919062000230565b508060079080519060200190620000c692919062000230565b50620000df6380ac58cd60e01b6200015860201b60201c565b620000f7635b5e139f60e01b6200015860201b60201c565b6200010f63780e9d6360e01b6200015860201b60201c565b505033600f60006101000a81548173ffffffffffffffffffffffffffffffffffffffff021916908373ffffffffffffffffffffffffffffffffffffffff16021790555062000354565b63ffffffff60e01b817bffffffffffffffffffffffffffffffffffffffffffffffffffffffff19161415620001c4576040517f08c379a0000000000000000000000000000000000000000000000000000000008152600401620001bb9062000321565b60405180910390fd5b6001600080837bffffffffffffffffffffffffffffffffffffffffffffffffffffffff19167bffffffffffffffffffffffffffffffffffffffffffffffffffffffff1916815260200190815260200160002060006101000a81548160ff02191690831515021790555050565b828054600181600116156101000203166002900490600052602060002090601f016020900481019282601f106200027357805160ff1916838001178555620002a4565b82800160010185558215620002a4579182015b82811115620002a357825182559160200191906001019062000286565b5b509050620002b39190620002b7565b5090565b620002dc91905b80821115620002d8576000816000905550600101620002be565b5090565b90565b6000620002ee601c8362000343565b91507f4552433136353a20696e76616c696420696e74657266616365206964000000006000830152602082019050919050565b600060208201905081810360008301526200033c81620002df565b9050919050565b600082825260208201905092915050565b61390b80620003646000396000f3fe608060405234801561001057600080fd5b50600436106101c45760003560e01c806370a08231116100f9578063a7e1d03111610097578063c87b56dd11610071578063c87b56dd1461051f578063d49caf2e1461054f578063e985e9c51461056d578063f851a4401461059d576101c4565b8063a7e1d031146104c7578063b28b4714146104e5578063b88d4fde14610503576101c4565b80637901c546116100d35780637901c5461461045157806395d89b411461046f5780639d0c58d81461048d578063a22cb465146104ab576101c4565b806370a08231146103e557806374f0f1901461041557806375794a3c14610433576101c4565b80632825df7b116101665780634f6ccce7116101405780634f6ccce71461033657806360f2659f146103665780636352211e146103975780636c0360eb146103c7576101c4565b80632825df7b146102ce5780632f745c59146102ea57806342842e0e1461031a576101c4565b8063095ea7b3116101a2578063095ea7b31461024757806318160ddd146102635780631e1e4e4a1461028157806323b872dd146102b2576101c4565b806301ffc9a7146101c957806306fdde03146101f9578063081812fc14610217575b600080fd5b6101e360048036038101906101de91906128f0565b6105bb565b6040516101f09190613360565b60405180910390f35b610201610622565b60405161020e919061337b565b60405180910390f35b610231600480360381019061022c9190612942565b6106c4565b60405161023e91906132d7565b60405180910390f35b610261600480360381019061025c91906128b4565b610749565b005b61026b610861565b60405161027891906135dd565b60405180910390f35b61029b60048036038101906102969190612942565b610872565b6040516102a99291906135f8565b60405180910390f35b6102cc60048036038101906102c791906127ae565b61093b565b005b6102e860048036038101906102e3919061296b565b61099b565b005b61030460048036038101906102ff91906128b4565b610b51565b60405161031191906135dd565b60405180910390f35b610334600480360381019061032f91906127ae565b610bac565b005b610350600480360381019061034b9190612942565b610bcc565b60405161035d91906135dd565b60405180910390f35b610380600480360381019061037b9190612942565b610bef565b60405161038e9291906135f8565b60405180910390f35b6103b160048036038101906103ac9190612942565b610cb8565b6040516103be91906132d7565b60405180910390f35b6103cf610cef565b6040516103dc919061337b565b60405180910390f35b6103ff60048036038101906103fa9190612749565b610d91565b60405161040c91906135dd565b60405180910390f35b61041d610e50565b60405161042a91906135dd565b60405180910390f35b61043b610e56565b60405161044891906135dd565b60405180910390f35b610459610e5c565b60405161046691906135dd565b60405180910390f35b610477610e62565b604051610484919061337b565b60405180910390f35b610495610f04565b6040516104a291906135dd565b60405180910390f35b6104c560048036038101906104c09190612878565b610f0a565b005b6104cf61108b565b6040516104dc919061333e565b60405180910390f35b6104ed611196565b6040516104fa919061333e565b60405180910390f35b61051d600480360381019061051891906127fd565b6112a1565b005b61053960048036038101906105349190612942565b611303565b604051610546919061337b565b60405180910390f35b610557611486565b60405161056491906135dd565b60405180910390f35b61058760048036038101906105829190612772565b61148c565b6040516105949190613360565b60405180910390f35b6105a5611520565b6040516105b291906132d7565b60405180910390f35b6000806000837bffffffffffffffffffffffffffffffffffffffffffffffffffffffff19167bffffffffffffffffffffffffffffffffffffffffffffffffffffffff1916815260200190815260200160002060009054906101000a900460ff169050919050565b606060068054600181600116156101000203166002900480601f0160208091040260200160405190810160405280929190818152602001828054600181600116156101000203166002900480156106ba5780601f1061068f576101008083540402835291602001916106ba565b820191906000526020600020905b81548152906001019060200180831161069d57829003601f168201915b5050505050905090565b60006106cf82611546565b61070e576040517f08c379a0000000000000000000000000000000000000000000000000000000008152600401610705906134fd565b60405180910390fd5b6004600083815260200190815260200160002060009054906101000a900473ffffffffffffffffffffffffffffffffffffffff169050919050565b600061075482610cb8565b90508073ffffffffffffffffffffffffffffffffffffffff168373ffffffffffffffffffffffffffffffffffffffff1614156107c5576040517f08c379a00000000000000000000000000000000000000000000000000000000081526004016107bc9061357d565b60405180910390fd5b8073ffffffffffffffffffffffffffffffffffffffff166107e4611563565b73ffffffffffffffffffffffffffffffffffffffff16148061081357506108128161080d611563565b61148c565b5b610852576040517f08c379a00000000000000000000000000000000000000000000000000000000081526004016108499061347d565b60405180910390fd5b61085c838361156b565b505050565b600061086d6002611624565b905090565b6011818154811061087f57fe5b9060005260206000209060020201600091509050806000015490806001018054600181600116156101000203166002900480601f0160208091040260200160405190810160405280929190818152602001828054600181600116156101000203166002900480156109315780601f1061090657610100808354040283529160200191610931565b820191906000526020600020905b81548152906001019060200180831161091457829003601f168201915b5050505050905082565b61094c610946611563565b82611639565b61098b576040517f08c379a00000000000000000000000000000000000000000000000000000000081526004016109829061359d565b60405180910390fd5b610996838383611717565b505050565b6001831480156109ae5750600d54600b54105b15610a60576109c66109be611563565b600a5461192e565b6109d2600a548261194c565b6109da612579565b6040518060400160405280600a5481526020018481525090506010819080600181540180825580915050600190039060005260206000209060020201600090919091909150600082015181600001556020820151816001019080519060200190610a45929190612593565b505050600b6000815480929190600101919050555050610b3a565b600283148015610a735750600e54600c54105b15610b2557610a8b610a83611563565b600a5461192e565b610a97600a548261194c565b610a9f612579565b6040518060400160405280600a5481526020018481525090506011819080600181540180825580915050600190039060005260206000209060020201600090919091909150600082015181600001556020820151816001019080519060200190610b0a929190612593565b505050600c6000815480929190600101919050555050610b39565b600a60008154809291906001900391905055505b5b600a60008154809291906001019190505550505050565b6000610ba482600160008673ffffffffffffffffffffffffffffffffffffffff1673ffffffffffffffffffffffffffffffffffffffff1681526020019081526020016000206119c090919063ffffffff16565b905092915050565b610bc7838383604051806020016040528060008152506112a1565b505050565b600080610be38360026119da90919063ffffffff16565b50905080915050919050565b60108181548110610bfc57fe5b9060005260206000209060020201600091509050806000015490806001018054600181600116156101000203166002900480601f016020809104026020016040519081016040528092919081815260200182805460018160011615610100020316600290048015610cae5780601f10610c8357610100808354040283529160200191610cae565b820191906000526020600020905b815481529060010190602001808311610c9157829003601f168201915b5050505050905082565b6000610ce8826040518060600160405280602981526020016138ad602991396002611a099092919063ffffffff16565b9050919050565b606060098054600181600116156101000203166002900480601f016020809104026020016040519081016040528092919081815260200182805460018160011615610100020316600290048015610d875780601f10610d5c57610100808354040283529160200191610d87565b820191906000526020600020905b815481529060010190602001808311610d6a57829003601f168201915b5050505050905090565b60008073ffffffffffffffffffffffffffffffffffffffff168273ffffffffffffffffffffffffffffffffffffffff161415610e02576040517f08c379a0000000000000000000000000000000000000000000000000000000008152600401610df99061349d565b60405180910390fd5b610e49600160008473ffffffffffffffffffffffffffffffffffffffff1673ffffffffffffffffffffffffffffffffffffffff168152602001908152602001600020611a28565b9050919050565b600d5481565b600a5481565b600c5481565b606060078054600181600116156101000203166002900480601f016020809104026020016040519081016040528092919081815260200182805460018160011615610100020316600290048015610efa5780601f10610ecf57610100808354040283529160200191610efa565b820191906000526020600020905b815481529060010190602001808311610edd57829003601f168201915b5050505050905090565b600b5481565b610f12611563565b73ffffffffffffffffffffffffffffffffffffffff168273ffffffffffffffffffffffffffffffffffffffff161415610f80576040517f08c379a0000000000000000000000000000000000000000000000000000000008152600401610f779061341d565b60405180910390fd5b8060056000610f8d611563565b73ffffffffffffffffffffffffffffffffffffffff1673ffffffffffffffffffffffffffffffffffffffff16815260200190815260200160002060008473ffffffffffffffffffffffffffffffffffffffff1673ffffffffffffffffffffffffffffffffffffffff16815260200190815260200160002060006101000a81548160ff0219169083151502179055508173ffffffffffffffffffffffffffffffffffffffff1661103a611563565b73ffffffffffffffffffffffffffffffffffffffff167f17307eab39ab6107e8899845ad3d59bd9653f200f220920489ca2b5937696c318360405161107f9190613360565b60405180910390a35050565b60606011805480602002602001604051908101604052809291908181526020016000905b8282101561118d578382906000526020600020906002020160405180604001604052908160008201548152602001600182018054600181600116156101000203166002900480601f0160208091040260200160405190810160405280929190818152602001828054600181600116156101000203166002900480156111755780601f1061114a57610100808354040283529160200191611175565b820191906000526020600020905b81548152906001019060200180831161115857829003601f168201915b505050505081525050815260200190600101906110af565b50505050905090565b60606010805480602002602001604051908101604052809291908181526020016000905b82821015611298578382906000526020600020906002020160405180604001604052908160008201548152602001600182018054600181600116156101000203166002900480601f0160208091040260200160405190810160405280929190818152602001828054600181600116156101000203166002900480156112805780601f1061125557610100808354040283529160200191611280565b820191906000526020600020905b81548152906001019060200180831161126357829003601f168201915b505050505081525050815260200190600101906111ba565b50505050905090565b6112b26112ac611563565b83611639565b6112f1576040517f08c379a00000000000000000000000000000000000000000000000000000000081526004016112e89061359d565b60405180910390fd5b6112fd84848484611a3d565b50505050565b606061130e82611546565b61134d576040517f08c379a00000000000000000000000000000000000000000000000000000000081526004016113449061355d565b60405180910390fd5b6060600860008481526020019081526020016000208054600181600116156101000203166002900480601f0160208091040260200160405190810160405280929190818152602001828054600181600116156101000203166002900480156113f65780601f106113cb576101008083540402835291602001916113f6565b820191906000526020600020905b8154815290600101906020018083116113d957829003601f168201915b505050505090506060611407610cef565b905060008151141561141d578192505050611481565b60008251111561145257808260405160200161143a9291906132b3565b60405160208183030381529060405292505050611481565b8061145c85611a99565b60405160200161146d9291906132b3565b604051602081830303815290604052925050505b919050565b600e5481565b6000600560008473ffffffffffffffffffffffffffffffffffffffff1673ffffffffffffffffffffffffffffffffffffffff16815260200190815260200160002060008373ffffffffffffffffffffffffffffffffffffffff1673ffffffffffffffffffffffffffffffffffffffff16815260200190815260200160002060009054906101000a900460ff16905092915050565b600f60009054906101000a900473ffffffffffffffffffffffffffffffffffffffff1681565b600061155c826002611be090919063ffffffff16565b9050919050565b600033905090565b816004600083815260200190815260200160002060006101000a81548173ffffffffffffffffffffffffffffffffffffffff021916908373ffffffffffffffffffffffffffffffffffffffff160217905550808273ffffffffffffffffffffffffffffffffffffffff166115de83610cb8565b73ffffffffffffffffffffffffffffffffffffffff167f8c5be1e5ebec7d5bd14f71427d1e84f3dd0314c0f7b2291e5b200ac8c7c3b92560405160405180910390a45050565b600061163282600001611bfa565b9050919050565b600061164482611546565b611683576040517f08c379a000000000000000000000000000000000000000000000000000000000815260040161167a9061345d565b60405180910390fd5b600061168e83610cb8565b90508073ffffffffffffffffffffffffffffffffffffffff168473ffffffffffffffffffffffffffffffffffffffff1614806116fd57508373ffffffffffffffffffffffffffffffffffffffff166116e5846106c4565b73ffffffffffffffffffffffffffffffffffffffff16145b8061170e575061170d818561148c565b5b91505092915050565b8273ffffffffffffffffffffffffffffffffffffffff1661173782610cb8565b73ffffffffffffffffffffffffffffffffffffffff161461178d576040517f08c379a00000000000000000000000000000000000000000000000000000000081526004016117849061353d565b60405180910390fd5b600073ffffffffffffffffffffffffffffffffffffffff168273ffffffffffffffffffffffffffffffffffffffff1614156117fd576040517f08c379a00000000000000000000000000000000000000000000000000000000081526004016117f4906133fd565b60405180910390fd5b611808838383611c0b565b61181360008261156b565b61186481600160008673ffffffffffffffffffffffffffffffffffffffff1673ffffffffffffffffffffffffffffffffffffffff168152602001908152602001600020611c1090919063ffffffff16565b506118b681600160008573ffffffffffffffffffffffffffffffffffffffff1673ffffffffffffffffffffffffffffffffffffffff168152602001908152602001600020611c2a90919063ffffffff16565b506118cd81836002611c449092919063ffffffff16565b50808273ffffffffffffffffffffffffffffffffffffffff168473ffffffffffffffffffffffffffffffffffffffff167fddf252ad1be2c89b69c2b068fc378daa952ba7f163c4a11628f55a4df523b3ef60405160405180910390a4505050565b611948828260405180602001604052806000815250611c79565b5050565b61195582611546565b611994576040517f08c379a000000000000000000000000000000000000000000000000000000000815260040161198b9061351d565b60405180910390fd5b806008600084815260200190815260200160002090805190602001906119bb929190612593565b505050565b60006119cf8360000183611cd4565b60001c905092915050565b6000806000806119ed8660000186611d41565b915091508160001c8160001c8090509350935050509250929050565b6000611a1c846000018460001b84611dc4565b60001c90509392505050565b6000611a3682600001611e55565b9050919050565b611a48848484611717565b611a5484848484611e66565b611a93576040517f08c379a0000000000000000000000000000000000000000000000000000000008152600401611a8a906133bd565b60405180910390fd5b50505050565b60606000821415611ae1576040518060400160405280600181526020017f30000000000000000000000000000000000000000000000000000000000000008152509050611bdb565b600082905060005b60008214611b0b578080600101915050600a8281611b0357fe5b049150611ae9565b60608167ffffffffffffffff81118015611b2457600080fd5b506040519080825280601f01601f191660200182016040528015611b575781602001600182028036833780820191505090505b50905060006001830390508593505b60008414611bd357600a8481611b7857fe5b0660300160f81b82828060019003935081518110611b9257fe5b60200101907effffffffffffffffffffffffffffffffffffffffffffffffffffffffffffff1916908160001a905350600a8481611bcb57fe5b049350611b66565b819450505050505b919050565b6000611bf2836000018360001b611fca565b905092915050565b600081600001805490509050919050565b505050565b6000611c22836000018360001b611fed565b905092915050565b6000611c3c836000018360001b6120d5565b905092915050565b6000611c70846000018460001b8473ffffffffffffffffffffffffffffffffffffffff1660001b612145565b90509392505050565b611c838383612221565b611c906000848484611e66565b611ccf576040517f08c379a0000000000000000000000000000000000000000000000000000000008152600401611cc6906133bd565b60405180910390fd5b505050565b600081836000018054905011611d1f576040517f08c379a0000000000000000000000000000000000000000000000000000000008152600401611d169061339d565b60405180910390fd5b826000018281548110611d2e57fe5b9060005260206000200154905092915050565b60008082846000018054905011611d8d576040517f08c379a0000000000000000000000000000000000000000000000000000000008152600401611d84906134bd565b60405180910390fd5b6000846000018481548110611d9e57fe5b906000526020600020906002020190508060000154816001015492509250509250929050565b60008084600101600085815260200190815260200160002054905060008114158390611e26576040517f08c379a0000000000000000000000000000000000000000000000000000000008152600401611e1d919061337b565b60405180910390fd5b50846000016001820381548110611e3957fe5b9060005260206000209060020201600101549150509392505050565b600081600001805490509050919050565b6000611e878473ffffffffffffffffffffffffffffffffffffffff166123af565b611e945760019050611fc2565b6060611f5b63150b7a0260e01b611ea9611563565b888787604051602401611ebf94939291906132f2565b604051602081830303815290604052907bffffffffffffffffffffffffffffffffffffffffffffffffffffffff19166020820180517bffffffffffffffffffffffffffffffffffffffffffffffffffffffff838183161783525050505060405180606001604052806032815260200161387b603291398773ffffffffffffffffffffffffffffffffffffffff166123c29092919063ffffffff16565b9050600081806020019051810190611f739190612919565b905063150b7a0260e01b7bffffffffffffffffffffffffffffffffffffffffffffffffffffffff1916817bffffffffffffffffffffffffffffffffffffffffffffffffffffffff191614925050505b949350505050565b600080836001016000848152602001908152602001600020541415905092915050565b600080836001016000848152602001908152602001600020549050600081146120c9576000600182039050600060018660000180549050039050600086600001828154811061203857fe5b906000526020600020015490508087600001848154811061205557fe5b906000526020600020018190555060018301876001016000838152602001908152602001600020819055508660000180548061208d57fe5b600190038181906000526020600020016000905590558660010160008781526020019081526020016000206000905560019450505050506120cf565b60009150505b92915050565b60006120e183836123da565b61213a57826000018290806001815401808255809150506001900390600052602060002001600090919091909150558260000180549050836001016000848152602001908152602001600020819055506001905061213f565b600090505b92915050565b60008084600101600085815260200190815260200160002054905060008114156121ec5784600001604051806040016040528086815260200185815250908060018154018082558091505060019003906000526020600020906002020160009091909190915060008201518160000155602082015181600101555050846000018054905085600101600086815260200190815260200160002081905550600191505061221a565b828560000160018303815481106121ff57fe5b90600052602060002090600202016001018190555060009150505b9392505050565b600073ffffffffffffffffffffffffffffffffffffffff168273ffffffffffffffffffffffffffffffffffffffff161415612291576040517f08c379a0000000000000000000000000000000000000000000000000000000008152600401612288906134dd565b60405180910390fd5b61229a81611546565b156122da576040517f08c379a00000000000000000000000000000000000000000000000000000000081526004016122d1906133dd565b60405180910390fd5b6122e660008383611c0b565b61233781600160008573ffffffffffffffffffffffffffffffffffffffff1673ffffffffffffffffffffffffffffffffffffffff168152602001908152602001600020611c2a90919063ffffffff16565b5061234e81836002611c449092919063ffffffff16565b50808273ffffffffffffffffffffffffffffffffffffffff16600073ffffffffffffffffffffffffffffffffffffffff167fddf252ad1be2c89b69c2b068fc378daa952ba7f163c4a11628f55a4df523b3ef60405160405180910390a45050565b600080823b905060008111915050919050565b60606123d184846000856123fd565b90509392505050565b600080836001016000848152602001908152602001600020541415905092915050565b606082471015612442576040517f08c379a00000000000000000000000000000000000000000000000000000000081526004016124399061343d565b60405180910390fd5b61244b856123af565b61248a576040517f08c379a0000000000000000000000000000000000000000000000000000000008152600401612481906135bd565b60405180910390fd5b600060608673ffffffffffffffffffffffffffffffffffffffff1685876040516124b4919061329c565b60006040518083038185875af1925050503d80600081146124f1576040519150601f19603f3d011682016040523d82523d6000602084013e6124f6565b606091505b5091509150612506828286612512565b92505050949350505050565b6060831561252257829050612572565b6000835111156125355782518084602001fd5b816040517f08c379a0000000000000000000000000000000000000000000000000000000008152600401612569919061337b565b60405180910390fd5b9392505050565b604051806040016040528060008152602001606081525090565b828054600181600116156101000203166002900490600052602060002090601f016020900481019282601f106125d457805160ff1916838001178555612602565b82800160010185558215612602579182015b828111156126015782518255916020019190600101906125e6565b5b50905061260f9190612613565b5090565b61263591905b80821115612631576000816000905550600101612619565b5090565b90565b6000813590506126478161381e565b92915050565b60008135905061265c81613835565b92915050565b6000813590506126718161384c565b92915050565b6000815190506126868161384c565b92915050565b600082601f83011261269d57600080fd5b81356126b06126ab82613655565b613628565b915080825260208301602083018583830111156126cc57600080fd5b6126d78382846137cb565b50505092915050565b600082601f8301126126f157600080fd5b81356127046126ff82613681565b613628565b9150808252602083016020830185838301111561272057600080fd5b61272b8382846137cb565b50505092915050565b60008135905061274381613863565b92915050565b60006020828403121561275b57600080fd5b600061276984828501612638565b91505092915050565b6000806040838503121561278557600080fd5b600061279385828601612638565b92505060206127a485828601612638565b9150509250929050565b6000806000606084860312156127c357600080fd5b60006127d186828701612638565b93505060206127e286828701612638565b92505060406127f386828701612734565b9150509250925092565b6000806000806080858703121561281357600080fd5b600061282187828801612638565b945050602061283287828801612638565b935050604061284387828801612734565b925050606085013567ffffffffffffffff81111561286057600080fd5b61286c8782880161268c565b91505092959194509250565b6000806040838503121561288b57600080fd5b600061289985828601612638565b92505060206128aa8582860161264d565b9150509250929050565b600080604083850312156128c757600080fd5b60006128d585828601612638565b92505060206128e685828601612734565b9150509250929050565b60006020828403121561290257600080fd5b600061291084828501612662565b91505092915050565b60006020828403121561292b57600080fd5b600061293984828501612677565b91505092915050565b60006020828403121561295457600080fd5b600061296284828501612734565b91505092915050565b60008060006060848603121561298057600080fd5b600061298e86828701612734565b935050602084013567ffffffffffffffff8111156129ab57600080fd5b6129b7868287016126e0565b925050604084013567ffffffffffffffff8111156129d457600080fd5b6129e0868287016126e0565b9150509250925092565b60006129f68383613241565b905092915050565b612a0781613757565b82525050565b612a1681613745565b82525050565b6000612a27826136bd565b612a3181856136eb565b935083602082028501612a43856136ad565b8060005b85811015612a7f5784840389528151612a6085826129ea565b9450612a6b836136de565b925060208a01995050600181019050612a47565b50829750879550505050505092915050565b612a9a81613769565b82525050565b6000612aab826136c8565b612ab581856136fc565b9350612ac58185602086016137da565b612ace8161380d565b840191505092915050565b6000612ae4826136c8565b612aee818561370d565b9350612afe8185602086016137da565b80840191505092915050565b6000612b15826136d3565b612b1f8185613718565b9350612b2f8185602086016137da565b612b388161380d565b840191505092915050565b6000612b4e826136d3565b612b588185613729565b9350612b688185602086016137da565b612b718161380d565b840191505092915050565b6000612b87826136d3565b612b91818561373a565b9350612ba18185602086016137da565b80840191505092915050565b6000612bba602283613729565b91507f456e756d657261626c655365743a20696e646578206f7574206f6620626f756e60008301527f64730000000000000000000000000000000000000000000000000000000000006020830152604082019050919050565b6000612c20603283613729565b91507f4552433732313a207472616e7366657220746f206e6f6e20455243373231526560008301527f63656976657220696d706c656d656e74657200000000000000000000000000006020830152604082019050919050565b6000612c86601c83613729565b91507f4552433732313a20746f6b656e20616c7265616479206d696e746564000000006000830152602082019050919050565b6000612cc6602483613729565b91507f4552433732313a207472616e7366657220746f20746865207a65726f2061646460008301527f72657373000000000000000000000000000000000000000000000000000000006020830152604082019050919050565b6000612d2c601983613729565b91507f4552433732313a20617070726f766520746f2063616c6c6572000000000000006000830152602082019050919050565b6000612d6c602683613729565b91507f416464726573733a20696e73756666696369656e742062616c616e636520666f60008301527f722063616c6c00000000000000000000000000000000000000000000000000006020830152604082019050919050565b6000612dd2602c83613729565b91507f4552433732313a206f70657261746f7220717565727920666f72206e6f6e657860008301527f697374656e7420746f6b656e00000000000000000000000000000000000000006020830152604082019050919050565b6000612e38603883613729565b91507f4552433732313a20617070726f76652063616c6c6572206973206e6f74206f7760008301527f6e6572206e6f7220617070726f76656420666f7220616c6c00000000000000006020830152604082019050919050565b6000612e9e602a83613729565b91507f4552433732313a2062616c616e636520717565727920666f7220746865207a6560008301527f726f2061646472657373000000000000000000000000000000000000000000006020830152604082019050919050565b6000612f04602283613729565b91507f456e756d657261626c654d61703a20696e646578206f7574206f6620626f756e60008301527f64730000000000000000000000000000000000000000000000000000000000006020830152604082019050919050565b6000612f6a602083613729565b91507f4552433732313a206d696e7420746f20746865207a65726f20616464726573736000830152602082019050919050565b6000612faa602c83613729565b91507f4552433732313a20617070726f76656420717565727920666f72206e6f6e657860008301527f697374656e7420746f6b656e00000000000000000000000000000000000000006020830152604082019050919050565b6000613010602c83613729565b91507f4552433732314d657461646174613a2055524920736574206f66206e6f6e657860008301527f697374656e7420746f6b656e00000000000000000000000000000000000000006020830152604082019050919050565b6000613076602983613729565b91507f4552433732313a207472616e73666572206f6620746f6b656e2074686174206960008301527f73206e6f74206f776e00000000000000000000000000000000000000000000006020830152604082019050919050565b60006130dc602f83613729565b91507f4552433732314d657461646174613a2055524920717565727920666f72206e6f60008301527f6e6578697374656e7420746f6b656e00000000000000000000000000000000006020830152604082019050919050565b6000613142602183613729565b91507f4552433732313a20617070726f76616c20746f2063757272656e74206f776e6560008301527f72000000000000000000000000000000000000000000000000000000000000006020830152604082019050919050565b60006131a8603183613729565b91507f4552433732313a207472616e736665722063616c6c6572206973206e6f74206f60008301527f776e6572206e6f7220617070726f7665640000000000000000000000000000006020830152604082019050919050565b600061320e601d83613729565b91507f416464726573733a2063616c6c20746f206e6f6e2d636f6e74726163740000006000830152602082019050919050565b6000604083016000830151613259600086018261327e565b50602083015184820360208601526132718282612b0a565b9150508091505092915050565b613287816137c1565b82525050565b613296816137c1565b82525050565b60006132a88284612ad9565b915081905092915050565b60006132bf8285612b7c565b91506132cb8284612b7c565b91508190509392505050565b60006020820190506132ec6000830184612a0d565b92915050565b600060808201905061330760008301876129fe565b6133146020830186612a0d565b613321604083018561328d565b81810360608301526133338184612aa0565b905095945050505050565b600060208201905081810360008301526133588184612a1c565b905092915050565b60006020820190506133756000830184612a91565b92915050565b600060208201905081810360008301526133958184612b43565b905092915050565b600060208201905081810360008301526133b681612bad565b9050919050565b600060208201905081810360008301526133d681612c13565b9050919050565b600060208201905081810360008301526133f681612c79565b9050919050565b6000602082019050818103600083015261341681612cb9565b9050919050565b6000602082019050818103600083015261343681612d1f565b9050919050565b6000602082019050818103600083015261345681612d5f565b9050919050565b6000602082019050818103600083015261347681612dc5565b9050919050565b6000602082019050818103600083015261349681612e2b565b9050919050565b600060208201905081810360008301526134b681612e91565b9050919050565b600060208201905081810360008301526134d681612ef7565b9050919050565b600060208201905081810360008301526134f681612f5d565b9050919050565b6000602082019050818103600083015261351681612f9d565b9050919050565b6000602082019050818103600083015261353681613003565b9050919050565b6000602082019050818103600083015261355681613069565b9050919050565b60006020820190508181036000830152613576816130cf565b9050919050565b6000602082019050818103600083015261359681613135565b9050919050565b600060208201905081810360008301526135b68161319b565b9050919050565b600060208201905081810360008301526135d681613201565b9050919050565b60006020820190506135f2600083018461328d565b92915050565b600060408201905061360d600083018561328d565b818103602083015261361f8184612b43565b90509392505050565b6000604051905081810181811067ffffffffffffffff8211171561364b57600080fd5b8060405250919050565b600067ffffffffffffffff82111561366c57600080fd5b601f19601f8301169050602081019050919050565b600067ffffffffffffffff82111561369857600080fd5b601f19601f8301169050602081019050919050565b6000819050602082019050919050565b600081519050919050565b600081519050919050565b600081519050919050565b6000602082019050919050565b600082825260208201905092915050565b600082825260208201905092915050565b600081905092915050565b600082825260208201905092915050565b600082825260208201905092915050565b600081905092915050565b6000613750826137a1565b9050919050565b6000613762826137a1565b9050919050565b60008115159050919050565b60007fffffffff0000000000000000000000000000000000000000000000000000000082169050919050565b600073ffffffffffffffffffffffffffffffffffffffff82169050919050565b6000819050919050565b82818337600083830152505050565b60005b838110156137f85780820151818401526020810190506137dd565b83811115613807576000848401525b50505050565b6000601f19601f8301169050919050565b61382781613745565b811461383257600080fd5b50565b61383e81613769565b811461384957600080fd5b50565b61385581613775565b811461386057600080fd5b50565b61386c816137c1565b811461387757600080fd5b5056fe4552433732313a207472616e7366657220746f206e6f6e20455243373231526563656976657220696d706c656d656e7465724552433732313a206f776e657220717565727920666f72206e6f6e6578697374656e7420746f6b656ea26469706673582212202fc0cb9529bb146f338f4a48d56517b64cc4bc13400561039869e9781feec92864736f6c634300060600335448414e4b20594f5520666f72205375627363726962696e6720e29da4efb88f20746f20414253",
  "immutableReferences": {},
  "source": "// SPDX-License-Identifier: MIT\npragma solidity ^0.6.6;\npragma experimental ABIEncoderV2;\n\nimport \"@openzeppelin/contracts/token/ERC721/ERC721.sol\";\ncontract Storage is ERC721{\n\n    uint256 public nextTokenId=0;\n    uint256 public _1minted=0;\n    uint256 public _2minted=0;\n    uint256 public _1totalSupply=69;\n    uint256 public _2totalSupply=100000;\n    address public admin;\n    struct Owner {\n        uint tokenId;\n        string name;\n    }\n    Owner[] public _1owners;\n    Owner[] public _2owners;\n    \n    constructor() public ERC721(\"THANK YOU for Subscribing  to ABS\", \"ABS\") {\n        admin = msg.sender;\n    }\n    function mint(uint _token,string memory _ownerName,string memory _tokenUri)public {\n       if(_token==1 && _1minted<_1totalSupply){\n        _safeMint(_msgSender(),nextTokenId);\n        _setTokenURI(nextTokenId,_tokenUri);\n        Owner memory owner = Owner(nextTokenId,_ownerName);\n        _1owners.push(owner);\n        _1minted++;\n       }\n       else if(_token==2 && _2minted<_2totalSupply){\n        _safeMint(_msgSender(),nextTokenId);\n        _setTokenURI(nextTokenId,_tokenUri);\n        Owner memory owner = Owner(nextTokenId,_ownerName);\n        _2owners.push(owner);\n        _2minted++;\n       }else{\n           nextTokenId--;\n       }\n       nextTokenId++;\n    }\n    function get1Owners()public view returns (Owner[] memory){\n        return _1owners;\n    }\n    function get2Owners()public view returns (Owner[] memory){\n        return _2owners;\n    }\n}",
  "sourcePath": "/Users/abhinavsingh/Dev/Genesis/Project Genesis contract/contracts/MyLovelySubs.sol",
  "compiler": {
    "name": "solc",
    "version": "0.6.6+commit.6c089d02.Emscripten.clang"
  },
  "schemaVersion": "3.4.1",
  "updatedAt": "2021-05-31T09:02:06.269Z",
  "devdoc": {
    "methods": {
      "approve(address,uint256)": {
        "details": "See {IERC721-approve}."
      },
      "balanceOf(address)": {
        "details": "See {IERC721-balanceOf}."
      },
      "baseURI()": {
        "details": "Returns the base URI set via {_setBaseURI}. This will be automatically added as a prefix in {tokenURI} to each token's URI, or to the token ID if no specific URI is set for that token ID."
      },
      "getApproved(uint256)": {
        "details": "See {IERC721-getApproved}."
      },
      "isApprovedForAll(address,address)": {
        "details": "See {IERC721-isApprovedForAll}."
      },
      "name()": {
        "details": "See {IERC721Metadata-name}."
      },
      "ownerOf(uint256)": {
        "details": "See {IERC721-ownerOf}."
      },
      "safeTransferFrom(address,address,uint256)": {
        "details": "See {IERC721-safeTransferFrom}."
      },
      "safeTransferFrom(address,address,uint256,bytes)": {
        "details": "See {IERC721-safeTransferFrom}."
      },
      "setApprovalForAll(address,bool)": {
        "details": "See {IERC721-setApprovalForAll}."
      },
      "supportsInterface(bytes4)": {
        "details": "See {IERC165-supportsInterface}.     * Time complexity O(1), guaranteed to always use less than 30 000 gas."
      },
      "symbol()": {
        "details": "See {IERC721Metadata-symbol}."
      },
      "tokenByIndex(uint256)": {
        "details": "See {IERC721Enumerable-tokenByIndex}."
      },
      "tokenOfOwnerByIndex(address,uint256)": {
        "details": "See {IERC721Enumerable-tokenOfOwnerByIndex}."
      },
      "tokenURI(uint256)": {
        "details": "See {IERC721Metadata-tokenURI}."
      },
      "totalSupply()": {
        "details": "See {IERC721Enumerable-totalSupply}."
      },
      "transferFrom(address,address,uint256)": {
        "details": "See {IERC721-transferFrom}."
      }
    }
  },
  "userdoc": {
    "methods": {}
  }
}